{
  "_format": "hh-sol-artifact-1",
  "contractName": "QuotePortal",
  "sourceName": "contracts/LovePortal.sol",
  "abi": [
    {
      "inputs": [],
      "stateMutability": "nonpayable",
      "type": "constructor"
    },
    {
      "anonymous": false,
      "inputs": [
        {
          "indexed": true,
          "internalType": "address",
          "name": "from",
          "type": "address"
        },
        {
          "indexed": false,
          "internalType": "uint256",
          "name": "timestamp",
          "type": "uint256"
        },
        {
          "indexed": false,
          "internalType": "string",
          "name": "message",
          "type": "string"
        }
      ],
      "name": "NewQuote",
      "type": "event"
    },
    {
      "inputs": [],
      "name": "getAllQuotes",
      "outputs": [
        {
          "components": [
            {
              "internalType": "address",
              "name": "waver",
              "type": "address"
            },
            {
              "internalType": "string",
              "name": "message",
              "type": "string"
            },
            {
              "internalType": "uint256",
              "name": "timestamp",
              "type": "uint256"
            }
          ],
          "internalType": "struct QuotePortal.Quote[]",
          "name": "",
          "type": "tuple[]"
        }
      ],
      "stateMutability": "view",
      "type": "function"
    },
    {
      "inputs": [],
      "name": "getTotalQuotes",
      "outputs": [
        {
          "internalType": "uint256",
          "name": "",
          "type": "uint256"
        }
      ],
      "stateMutability": "view",
      "type": "function"
    },
    {
      "inputs": [
        {
          "internalType": "string",
          "name": "_message",
          "type": "string"
        }
      ],
      "name": "writeQuote",
      "outputs": [],
      "stateMutability": "nonpayable",
      "type": "function"
    }
  ],
  "bytecode": "0x60806040523480156200001157600080fd5b506200005d6040518060400160405280601281526020017f486f6c6c6120446576416e6f6e796d6f757300000000000000000000000000008152506200006360201b620003b11760201c565b620001f7565b62000103816040516024016200007a919062000170565b6040516020818303038152906040527f41304fac000000000000000000000000000000000000000000000000000000007bffffffffffffffffffffffffffffffffffffffffffffffffffffffff19166020820180517bffffffffffffffffffffffffffffffffffffffffffffffffffffffff83818316178352505050506200010660201b60201c565b50565b60008151905060006a636f6e736f6c652e6c6f679050602083016000808483855afa5050505050565b60006200013c8262000194565b6200014881856200019f565b93506200015a818560208601620001b0565b6200016581620001e6565b840191505092915050565b600060208201905081810360008301526200018c81846200012f565b905092915050565b600081519050919050565b600082825260208201905092915050565b60005b83811015620001d0578082015181840152602081019050620001b3565b83811115620001e0576000848401525b50505050565b6000601f19601f8301169050919050565b610c0e80620002076000396000f3fe608060405234801561001057600080fd5b50600436106100415760003560e01c80634c4332ba1461004657806370da78f914610064578063c1b5ae7714610080575b600080fd5b61004e61009e565b60405161005b919061087e565b60405180910390f35b61007e600480360381019061007991906106b6565b6101ef565b005b610088610366565b6040516100959190610922565b60405180910390f35b60606001805480602002602001604051908101604052809291908181526020016000905b828210156101e657838290600052602060002090600302016040518060600160405290816000820160009054906101000a900473ffffffffffffffffffffffffffffffffffffffff1673ffffffffffffffffffffffffffffffffffffffff1673ffffffffffffffffffffffffffffffffffffffff16815260200160018201805461014b90610b08565b80601f016020809104026020016040519081016040528092919081815260200182805461017790610b08565b80156101c45780601f10610199576101008083540402835291602001916101c4565b820191906000526020600020905b8154815290600101906020018083116101a757829003601f168201915b50505050508152602001600282015481525050815260200190600101906100c2565b50505050905090565b60016000808282546102019190610a34565b925050819055506102476040518060400160405280601881526020017f25732077726974657320612071756f746520746f20796f7500000000000000008152503361044a565b600160405180606001604052803373ffffffffffffffffffffffffffffffffffffffff16815260200183815260200142815250908060018154018082558091505060019003906000526020600020906003020160009091909190915060008201518160000160006101000a81548173ffffffffffffffffffffffffffffffffffffffff021916908373ffffffffffffffffffffffffffffffffffffffff16021790555060208201518160010190805190602001906103069291906105ab565b506040820151816002015550503373ffffffffffffffffffffffffffffffffffffffff167f2dd4ff1f878d3775bba6cf86eda569a8daeeac1afd74d9011ac9a654d23916f6428360405161035b92919061093d565b60405180910390a250565b60006103a96040518060400160405280601881526020017f5765206861766520256420746f74616c2071756f7465732100000000000000008152506000546104e6565b600054905090565b610447816040516024016103c591906108a0565b6040516020818303038152906040527f41304fac000000000000000000000000000000000000000000000000000000007bffffffffffffffffffffffffffffffffffffffffffffffffffffffff19166020820180517bffffffffffffffffffffffffffffffffffffffffffffffffffffffff8381831617835250505050610582565b50565b6104e282826040516024016104609291906108c2565b6040516020818303038152906040527f319af333000000000000000000000000000000000000000000000000000000007bffffffffffffffffffffffffffffffffffffffffffffffffffffffff19166020820180517bffffffffffffffffffffffffffffffffffffffffffffffffffffffff8381831617835250505050610582565b5050565b61057e82826040516024016104fc9291906108f2565b6040516020818303038152906040527f9710a9d0000000000000000000000000000000000000000000000000000000007bffffffffffffffffffffffffffffffffffffffffffffffffffffffff19166020820180517bffffffffffffffffffffffffffffffffffffffffffffffffffffffff8381831617835250505050610582565b5050565b60008151905060006a636f6e736f6c652e6c6f679050602083016000808483855afa5050505050565b8280546105b790610b08565b90600052602060002090601f0160209004810192826105d95760008555610620565b82601f106105f257805160ff1916838001178555610620565b82800160010185558215610620579182015b8281111561061f578251825591602001919060010190610604565b5b50905061062d9190610631565b5090565b5b8082111561064a576000816000905550600101610632565b5090565b600061066161065c8461099e565b61096d565b90508281526020810184848401111561067957600080fd5b610684848285610ac6565b509392505050565b600082601f83011261069d57600080fd5b81356106ad84826020860161064e565b91505092915050565b6000602082840312156106c857600080fd5b600082013567ffffffffffffffff8111156106e257600080fd5b6106ee8482850161068c565b91505092915050565b60006107038383610810565b905092915050565b61071481610a8a565b82525050565b61072381610a8a565b82525050565b6000610734826109de565b61073e8185610a01565b935083602082028501610750856109ce565b8060005b8581101561078c578484038952815161076d85826106f7565b9450610778836109f4565b925060208a01995050600181019050610754565b50829750879550505050505092915050565b60006107a9826109e9565b6107b38185610a12565b93506107c3818560208601610ad5565b6107cc81610bc7565b840191505092915050565b60006107e2826109e9565b6107ec8185610a23565b93506107fc818560208601610ad5565b61080581610bc7565b840191505092915050565b6000606083016000830151610828600086018261070b565b5060208301518482036020860152610840828261079e565b91505060408301516108556040860182610860565b508091505092915050565b61086981610abc565b82525050565b61087881610abc565b82525050565b600060208201905081810360008301526108988184610729565b905092915050565b600060208201905081810360008301526108ba81846107d7565b905092915050565b600060408201905081810360008301526108dc81856107d7565b90506108eb602083018461071a565b9392505050565b6000604082019050818103600083015261090c81856107d7565b905061091b602083018461086f565b9392505050565b6000602082019050610937600083018461086f565b92915050565b6000604082019050610952600083018561086f565b818103602083015261096481846107d7565b90509392505050565b6000604051905081810181811067ffffffffffffffff8211171561099457610993610b98565b5b8060405250919050565b600067ffffffffffffffff8211156109b9576109b8610b98565b5b601f19601f8301169050602081019050919050565b6000819050602082019050919050565b600081519050919050565b600081519050919050565b6000602082019050919050565b600082825260208201905092915050565b600082825260208201905092915050565b600082825260208201905092915050565b6000610a3f82610abc565b9150610a4a83610abc565b9250827fffffffffffffffffffffffffffffffffffffffffffffffffffffffffffffffff03821115610a7f57610a7e610b3a565b5b828201905092915050565b6000610a9582610a9c565b9050919050565b600073ffffffffffffffffffffffffffffffffffffffff82169050919050565b6000819050919050565b82818337600083830152505050565b60005b83811015610af3578082015181840152602081019050610ad8565b83811115610b02576000848401525b50505050565b60006002820490506001821680610b2057607f821691505b60208210811415610b3457610b33610b69565b5b50919050565b7f4e487b7100000000000000000000000000000000000000000000000000000000600052601160045260246000fd5b7f4e487b7100000000000000000000000000000000000000000000000000000000600052602260045260246000fd5b7f4e487b7100000000000000000000000000000000000000000000000000000000600052604160045260246000fd5b6000601f19601f830116905091905056fea2646970667358221220a14806cec2421baf43f8c7628d32c4339144ca426d5ad27b00e40fa132116e7264736f6c63430008000033",
  "linkReferences": {},
  "deployedLinkReferences": {}
}